:0200000042C0FC
:10000200FECFFDCFFCCFFBCFFACFF9CFF8CFF7CFA2
:1000120065C0F5CFF4CFF3CFF2CFF1CFF0CFEFCF72
:10002200EECFEDCF1027E80364000A0001000010B4
:100032000001100001000000416C692051617365EC
:100042006D690064697374616E63653D00636D0080
:1000520080C001002D4E414E00494E460000020074
:10006200040038000B0060013A000A006B014500F1
:10007200030075014F0002008601520001008A014F
:1000820054000000F894EE27ECBBF1E0FBBFEBBF9D
:10009200E5BF8DE0A2E0BB27ED938A95E9F780E00A
:1000A20094E0A0E6ED930197E9F7E0E6F0E08591B0
:1000B2009591009761F0A591B59105901590BF01BA
:1000C200F00105900D920197E1F7FB01F0CFEFE50A
:1000D200EDBFE4E0EEBFC0E6D1E010C0EA93FA93D0
:1000E200EFB7EA93E0E0E2BFF20131962F01E1E0DF
:1000F200E8BFE991EFBFF991E9911895EFEFE7BBFE
:10010200E5E0E4BBA0E1C8D098D0A0E6B1E0B3D06E
:10011200A0EDB7E019D291D0E0E0E2BFE1E0E9BFA3
:100122007894A89A83E08A95F1F7A898999BFECFD4
:10013200E1E0E3BF44245524E0E0E2BF9999FECF19
:10014200E0E0E3BFE0937801E0937901E0937A0184
:10015200E0937B01B42DA0E0E2B7F0E0EA0FFB1FD1
:100162006627772767D2A7EEBAE38DE89CE3ECD245
:10017200E0937801F093790160937A0170937B01A7
:10018200A0917801B091790180917A0190917B01DF
:10019200E0E0F0E060E771E46AD310F4AA9A01C0EB
:1001A200AA984BD0ABE6B1E066D0E0E0EA93A1E0DA
:1001B20037D0E0917801F091790160917A017091E4
:1001C2007B0191D3E2E0EA93ACE7B1E08ED0ACE7F9
:1001D200B1E051D0E5E0EA93A1E022D0A5E7B1E099
:1001E2004AD0A4EFB1E0B0D19CCFFFCFAA93E8B33D
:1001F200EF70AE2FE881E07FEA2BE8BB55D1C29ABF
:1002020053D1C29851D16FC0AA93A881EFDFE88180
:10021200E295E883A881EADF81E18A95F1F763C07C
:10022200AA93E881F0E0EA57FE4FE081A981AE0F80
:10023200EBDF7980688022960895A2E039D1ACE0A4
:10024200E3DFA1E035D1E0E06E2E7E2E0895AA9381
:10025200A881AA3011F0791440F0E0E0EA936394A7
:10026200A62DDEDFA881AA30F1F17394C09AA8818D
:10027200CBDFC09838C0BA93AA931A93A981BA81E6
:10028200ED91A983BA831E2FE03019F0A12FDFDF91
:10029200F5CF188123960895AA93E7B3E06FE7BBE1
:1002A200BA9AB89AB99AC298C098C1989880E881C7
:1002B200E058E0938801E881E054E0938901A4E1E9
:1002C200B0E042D1F9D0F8D0F7D0A0E28FDF81E2DE
:1002D2008A95F1F7A8E298DFA4E096DFA5E894DF1B
:1002E200A6E092DFAADF21960895BA93AA932497F3
:1002F200E0E0E883E983EA83EFE3EB830BD3EB856A
:10030200FC85EF3FAFEFFA0729F4DCD0A6E5B0E0B9
:10031200BED07AC0EF3FAFE7FA0729F4D3D0A7E502
:10032200B0E0B5D071C0AC85AA2332F4D0D016D1DA
:10033200D3D0D7D0EDE2EC93A885A73010F0E6E059
:10034200E8871885E12F1150E03021F0D1D0D5D0C7
:10035200DAD0F8CFDDD0A8D1BFD010E0E0E0F0E0F5
:1003620060E87FE3D0D0D4D082D260F0C1D0D9D0BF
:10037200CAD01F5F173228F0A5D0ABE5B0E087D016
:1003820043C0F1CF103021F4ACD0E0E3EC931EC0B7
:10039200E12F1150E030D1F0ABD0AFD0A0E0B0E00F
:1003A20080E09FE381D1DF01CB0161D0ACD0B0D03E
:1003B20019D207D10E2F95D0BAD09AD080D23AD185
:1003C200C3D1BBD09AD269D187D0E2CFE885E030E1
:1003D200B9F087D0EEE2EC93E885E150E887EF5F71
:1003E20079F0ABD09ED078D072D0EBD00E2F79D0EE
:1003F2009ED0A3D064D21ED180D24FD16DD0ECCF8B
:10040200AE81BF81E0E0EC9388D22D96089570D240
:100412007B816A81F981E88177FB770F67FD7160E3
:10042200972F9E5781F078F0983190F4AA27BB2736
:10043200882708948795B795A7959A95D1F7EA23C7
:10044200FB23682305C0E8947727EE27FF2766275A
:100452006F77769508F4606877F9A991B9918991D7
:100462009991EA17FB076807790797FB089540D22D
:1004720030D2CDDF33D211F465D007C0EEF762D0AF
:10048200A0E0B0E080E89FE308D124960895BA93F3
:10049200AA93E991F991A991B991CD0105900D9293
:1004A2000020E1F7FC01089582E08A95F1F70895B2
:1004B200ABDEA3E0B0E048C0A0E398DE81E28A951B
:1004C200F1F70895EE81FF81FA93EA930895E985A1
:1004D200FA856B857C850895E987FA876B877C8727
:1004E2000895AE81BF811196AE83BF83119708959F
:1004F200AA81BB818C819D810895EDECFCEC6CECB2
:100502007DE322D10895EA83FB836C837D83089582
:10051200EA81FB816C817D81A985BA858B859C8569
:100522000895E0E0F0E060E271E40ED10895E02F7A
:10053200E05DEC93E02FF0E00895A985BA858B8504
:100542009C850895C1D10895109639F08AEF90E004
:100552000197F1F7A8951197C9F708953097604070
:10056200704009F070580895552342F4503811F440
:10057200E0FF04C03196691F791F6BF050E85727DE
:1005820011F45F93CFC05F3F31F0660F000C5795B7
:100592006795752F08955F9300200AF0CFC0C8C0F9
:1005A20050E8192E1522880F991F9527550F879508
:1005B20050E8072E0522660F771F7527550F67959E
:1005C2000895689401C0E8945F93F2DF703818F0E0
:1005D2007F3F08F4A7C056E1571BAAF45195583043
:1005E2000EF4593030F0EFEFFFEF6FEF7FE777F95E
:1005F2001AC077275523B9F0EE0FFF1F661F771F2A
:100602005A95D1F710C07727583028F0EF2FF62FE0
:10061200672F5850F9CF552331F076956795F795A6
:10062200E7955A95D1F700200AF441D15F910895D8
:10063200689401C0E894309760407040B1F00024A3
:1006420026F0772312F4009432D1172E7EE1112086
:1006520032F07A95EE0FFF1F661F111CF9CFEF2FB4
:10066200F62F612D5F938ADF5F9108954F93AF015B
:10067200FD01DA01AB01BC01CA01402D012C142E8F
:100682004F910895EA0FFB1F681F0895E095F095BA
:100692006095EF5FFF4F6F4F08955F9381DF903852
:1006A20071F150E8152604C05F937ADF903839F172
:1006B200703821F1572F591B2BF112F4D7DFFACFE3
:1006C200583118F0AA27BB278827583028F0AB2FBB
:1006D200B82F88275850F9CF552329F08695B7951A
:1006E200A7955A95D9F7502D512572F0CBDF38F4E2
:1006F2006795F795E795739513F420C0B7DF3EDF52
:100702005F910895D8F7FBCFEA1BFB0B680B51F002
:1007120010F40094BBDF662392F3EE0FFF1F661FF7
:100722007A95CBF7EE27FF27662777275F91089503
:10073200EFEFFFEF6FE77FEF5F910895EFEFFFEFCE
:100742006FE77FE75F9108955F932ADF703851F377
:10075200903841F301240894791F23F41CF30020FC
:100762003AF3ECCF0F921F932F933F934F9311279E
:1007720022279927689FA0018F9F302D410D591F75
:100782006B9F300D411D591F8E9F27D0BF9F25D0D3
:100792006A9F23D0BE9F1DD0AF9F1BD0AE9F110D6D
:1007A200291F391F491F591FE32FF42F652F522F7D
:1007B2004F913F912F911F910F9066232AF0550F71
:1007C200EE1FFF1F661F02C073954BF2CDDE5F91D5
:1007D2000895100D211D391F02C0200D311D491F22
:1007E200591F08955F93DCDE703821F411200AF45A
:1007F2009FCFA4CF903809F495CF01240894970B8A
:100802001BF4D4F30020F3CF792F1F932F933F9340
:100812004F9311241127222733274427552790E28B
:10082200AE17BF078607410730F0AE1BBF0B860B22
:10083200410B089401C08894551F221F331F111CBD
:10084200AA1FBB1F881F441F9A9551F7F901612DFA
:100852004F913F912F911F91662332F0550FEE1F5A
:10086200FF1F661F7A9543F27FDE5F9108959923F9
:100872009AF0772342F0971748F029F4AE17BF0792
:10088200860720F031F098948894089598940894FB
:1008920008951894889408957723C2F7971798F3C8
:1008A200A9F7EA17FB07680788F399F3ECCFF095ED
:1008B20060957095E195FF4F6F4F7F4F08956F2FB1
:1008C200660F660B762F0895E881F9816A817B8134
:1008D2000895A881B9818A819B810895E883F9836B
:1008E2006A837B8308957A936A93FA93EA930895CD
:1008F2009A938A93BA93AA930895182E862F612DFC
:10090200192E972F712D1B2EBF2FF12D1A2EAE2FC0
:10091200E12D08951A930A93089519810881089583
:00000001FF
